:020000040000FA
:0600000009EF01F01200FF
:020006000000F8
:08000800060EF66E000EF76E05
:10001000000EF86E00010900F550856F0900F550DB
:10002000866F03E1856701D03DD00900F550806FF0
:100030000900F550816F0900F550826F0900090031
:10004000F550E96E0900F550EA6E09000900090053
:10005000F550836F0900F550846F09000900F6CF51
:1000600087F0F7CF88F0F8CF89F080C0F6FF81C025
:10007000F7FF82C0F8FF0001835302E1845307E0D9
:100080000900F550EE6E8307F8E28407F9D787C0C0
:10009000F6FF88C0F7FF89C0F8FF00018507000E52
:0600A000865BBFD71200D1
:0A00A600D9CFE6FFDACFE6FFE1CF85
:1000B000D9FFE2CFDAFFC26AC06AFC0EDB407F0BD9
:1000C0003C0BC26EFC0EDB38F00B300B106EFB0EDF
:1000D000DB500F0B1010C16EFD0EDB50040DF35002
:1000E000380B116EFD0EDB380F0B070B106EFD0E7B
:1000F000DB50800B10101110C06EFC0EDBAE03D075
:100100009E9C9D8CF28CC280E552E5CFDAFFE7CF52
:04011000D9FF120001
:0C011400946A956A92680D0EC16EE66E4A
:100120000C0EE66ED90EE66E53EC00F0E552E55289
:10013000E55225EC01F020EC01F0000901E0FBD7CD
:1001400017EC01F0F3CF8AF0F4CF8BF08AC010F0F7
:100150008BC011F00D6A010E0E6E10C008F011C0B8
:1001600009F0BDEC00F004C010F005C011F0105013
:0A017000826E8BC083FFDDD7120002
:06017A00006A0EAEC6EFA4
:1001800000F00D6C0E1EE86A0E22001E09AECEEFC6
:1001900000F0086C091EE86A0922001EE3EC00F07A
:1001A00009BEDEEF00F000AE000C086C091EE86A24
:1001B0000922046C051EE86A0522000C00BED5EF7A
:0601C00000F00188FF0CB5
:0A01C600056A046A100EE76ED89077
:1001D00008360936043605360D50045C0E500558B5
:1001E00005E30D50045E0E50055A082AE72EF0D79D
:0201F0001200FB
:0E01F200000EF36E00EE00F0060E01D81200B3
:10020000EA6002D0EE6AFCD7F350E9601200EE6AB1
:02021000FCD719
:0E02120015EE00F025EE00F0F86A019C04ECF9
:0E02200000F027EC01F08AEC00F0FBD7120092
:02022E00C450BA
:10023000136E126AC3501210F36E13C0F4FF120053
:0A024000C250020B01E0010E120093
:04024A00C28212005A
:02024E0012009C
:020000040030CA
:0100010002FC
:010003001EDE
:010005008377
:010006008178
:00000001FF
