:020000040000FA
:0600000098EF00F0120071
:0A00060001004E0100008A00000016
:0400100002000000EA
:0C001400060EF66E000EF76E000EF86E81
:1000200000010900F550856F0900F550866F03E166
:10003000856701D03DD00900F550806F0900F5506B
:10004000816F0900F550826F09000900F550E96ED3
:100050000900F550EA6E090009000900F550836FA8
:100060000900F550846F09000900F6CF87F0F7CF3B
:1000700088F0F8CF89F080C0F6FF81C0F7FF82C01A
:10008000F8FF0001835302E1845307E00900F550B3
:10009000EE6E8307F8E28407F9D787C0F6FF88C0C1
:1000A000F7FF89C0F8FF00018507000E865BBFD708
:0200B00012003C
:0E00B2009268956A94680F0EC16E82B206D0F5
:1000C00082A2FED700018A2B000E8B2380A203D0D0
:1000D000839883941CD080B21AD00001010E8A1933
:1000E00001E18B5102E183948388020E8A1901E1B8
:1000F0008B5102E183848398030E8BAF02D0D8909A
:1001000003D08A5D000E8B5902E38388838412003A
:10011000000EF36E00EE00F0060E01D81200EA6049
:1001200002D0EE6AFCD7F350E9601200EE6AFCD709
:1001300015EE00F025EE00F0F86A019C0AEC00F0E4
:0C014000A6EC00F059EC00F0FBD7120018
:02014C0012009F
:02014E000000AF
:020000040030CA
:0100010002FC
:010003001EDE
:010005008179
:00000001FF
