:020000040000FA
:06000000F8EF00F0120011
:020006001200E6
:040008000DEF00F008
:04000C0001000C02E1
:0A00100000008A000000020000005A
:06001A00DACFE4FFE2CFA3
:10002000DAFFE9CFE4FFEACFE4FFF6CFE4FFF7CF52
:10003000E4FFF5CFE4FFF3CFE4FFF4CFE4FFFACF22
:10004000E4FF00EE00F0020EE80403E3EECFE4FF6D
:10005000FBD700EE04F0000EE80403E3EECFE4FF6C
:10006000FBD7E652829400018A6B8B6B140E8BAF28
:1000700002D0D89003D08A5D000E8B590BE28278B3
:10008000320EE66ED1EC00F0E55200018A2B000E34
:100090008B23ECD7F090E55200EE03F0000EE8045D
:1000A00003E3E5CFEDFFFBD700EE01F0020EE8041D
:1000B00003E3E5CFEDFFFBD7E5CFFAFFE5CFF4FF94
:1000C000E5CFF3FFE5CFF5FFE5CFF7FFE5CFF6FF8F
:1000D000E5CFEAFFE5CFE9FFE5CFDAFF11000F0E2C
:1000E000C16E946A9368D09EF28EF28CF086F09086
:1000F000F08CF19A8274320EE66ED1EC00F0E5528B
:04010000F9D7120019
:0C0104000C0EF66E000EF76E000EF86E8A
:1001100000010900F550856F0900F550866F03E175
:10012000856701D03DD00900F550806F0900F5507A
:10013000816F0900F550826F09000900F550E96EE2
:100140000900F550EA6E090009000900F550836FB7
:100150000900F550846F09000900F6CF87F0F7CF4A
:1001600088F0F8CF89F080C0F6FF81C0F7FF82C029
:10017000F8FF0001835302E1845307E00900F550C2
:10018000EE6E8307F8E28407F9D787C0F6FF88C0D0
:10019000F7FF89C0F8FF00018507000E865BBFD717
:0201A00012004B
:0E01A200FF0EE350036EEF0E01D0F30EE76E7A
:1001B000E72ED8EF00F00C0E026EE76AE72EDEEFB6
:1001C00000F0022EDDEF00F0032ED6EF00F012005B
:1001D000000EF36E00EE00F0060E01D81200EA6089
:1001E00002D0EE6AFCD7F350E9601200EE6AFCD749
:1001F00015EE00F025EE00F0F86A019C82EC00F0AC
:0C02000003EC00F06FEC00F0FBD71200E4
:02020C000000F0
:020000040030CA
:0100010002FC
:010003001EDE
:010005008377
:010006008178
:00000001FF
