:020000040000FA
:06000000F5EF00F0120014
:020006000000F8
:08000800060EF66E000EF76E05
:10001000000EF86E00010900F550856F0900F550DB
:10002000866F03E1856701D03DD00900F550806FF0
:100030000900F550816F0900F550826F0900090031
:10004000F550E96E0900F550EA6E09000900090053
:10005000F550836F0900F550846F09000900F6CF51
:1000600087F0F7CF88F0F8CF89F080C0F6FF81C025
:10007000F7FF82C0F8FF0001835302E1845307E0D9
:100080000900F550EE6E8307F8E28407F9D787C0C0
:10009000F6FF88C0F7FF89C0F8FF00018507000E52
:0600A000865BBFD71200D1
:0A00A600D9CFE6FFDACFE6FFE1CF85
:1000B000D9FFE2CFDAFFE652E652E652E652F8CF37
:1000C00002F0F6CF03F00C0EBA6E050EF66EF76A6C
:1000D000300EF86E0800F550010B03E0010EDB68EE
:1000E00002D0010EDB6A010EDB5002E0949201D0D7
:1000F0009396CA94FD0EDB50CB6ECA8402C0F8FF03
:1001000003C0F6FF040EE15C02E2E16AE552E16E33
:0C011000E552E5CFDAFFE7CFD9FF12007F
:04011C00D9CFE6FF52
:10012000DACFE6FFE1CFD9FFE2CFDAFFE652E652BF
:10013000FC0EDBCF02F0FD0EDBCF03F0060ED890F5
:1001400002360336E804FBE102C0DEFF03C0DDFF38
:10015000010EDB50BB6EDF50E840E8403F0B300B38
:10016000026ECF0EBA140210BA6EE552E552E55295
:0A017000E5CFDAFFE7CFD9FF120058
:06017A009368946A0F0E69
:10018000C16E950EE66E53EC00F0E552CA92CA803D
:10019000780EE66EE66A8EEC00F0E552E55281B02C
:1001A00008D0B40EE66EE66A8EEC00F0E552E55239
:1001B0000AD081B608D0680EE66E010EE66E8EECAF
:0A01C00000F0E552E552EBD7120003
:0601CA00000EF36E00EED2
:1001D00000F0060E01D81200EA6002D0EE6AFCD7E9
:0A01E000F350E9601200EE6AFCD74C
:0601EA0015EE00F025EE09
:1001F00000F0F86A019C04EC00F003EC01F0BDECA7
:0602000000F0FBD7120024
:020206001200E4
:020000040030CA
:0100010002FC
:010003001EDE
:010005008377
:010006008178
:00000001FF
