:020000040000FA
:0600000016EF03F01200F0
:020006000000F8
:08000800019E08D0019E09AE23
:1000100005D0086C091EE86A0922018E09C003F0A8
:1000200008C002F0136A126A8E0E046E056A79EF38
:1000300001F0016AB5EC01F0CDEC01F001B65DEF25
:1000400001F001A205D001BA5DEF01F064EF01F00B
:1000500001BA70EF01F001A005D001B85DEF01F029
:1000600070EF01F001B864EF01F0056A7F0E0A2419
:10007000046EE86A05220F50045EE86A055A1A0EFB
:10008000106E0A6A126A136A026A036A0C50075EEB
:100090000D50085A0E50095A000E0A5A09E70C5022
:1000A00007260D5008220E500922000E0A2201D008
:1000B000128AD8900736083609360A36D890123692
:1000C000133602360336102EE1D7095008100710F8
:1000D000D8A4128A79EF01F0016AB5EC01F0CDECF9
:1000E00001F001B65DEF01F001A205D001B85DEFAE
:1000F00001F064EF01F001AA05D001B05DEF01F05D
:1001000064EF01F001B002D001A802D070EF01F05D
:10011000056A0F500A24046EE86A05227E0E045E0A
:10012000E86A055A126A136A026A036A0E500902E3
:10013000F4CF03F0F3CF02F00D500902F350132671
:10014000F4500222000E03220E500802F350132630
:10015000F4500222000E03220C500902F350122622
:10016000F4501322000E022203220D500802F35015
:100170001226F4501322000E022203220E50070210
:10018000F3501226F4501322000E022203220C50C8
:100190000802F4501226000E1322022203220D50F0
:1001A0000702F4501226000E13220222032279EFD6
:1001B00001F0006A0EAEE2EF00F00D6C0E1EE86A70
:1001C0000E22001E09AEEAEF00F0086C091EE86A74
:1001D0000922001EF0EC02F009BEFAEF00F000AEBA
:1001E000000C086C091EE86A0922046C051EE86A06
:1001F0000522000C00BEF1EF00F00188FF0C08ECB6
:1002000001F001B6000C01B0000C01A4000C010CBF
:10021000016AB5EC01F0CDEC01F001B6120001AEBF
:1002200008D001A004D001A802D0018012000190E2
:1002300012000F500A5C0BE10E50095C08E10D50F2
:10024000085C05E10C50075C02E101801200D8A0B7
:1002500002D0018E10D00A500FC00AF00F6E095064
:100260000EC009F00E6E08500DC008F00D6E07505C
:100270000CC007F00C6E0F500A5C10E0FF0F09E095
:10028000019001B403D001AE0184120001AE0194CB
:1002900012000F2AD8900E320D320C320C50075E2D
:1002A0000D50085A0E50095A09BEEAD7D8900736A1
:1002B000083609360A2EF8D7C8D77F0E0A6EFF0E09
:1002C000096E086E076E12007F0E01BEFF0E0A6EE9
:1002D00002D07F0E0A6E800E096E086A076AF3D795
:1002E00001AE04D0800E0A6E096AF7D70A6A096A5D
:1002F000F4D70350021013101210F8E005BEF0D727
:1003000003BE0CD004500510EBE0D8901236133623
:10031000023603360406D8A00506F2D70550D4E10C
:100320000428D2E012AE11D07F0E121402E113A005
:100330000CD0132AE86A0222032207E3D880033292
:1003400002321332042A0428BFE00450C9E013C06B
:1003500007F002C008F00334096E04300A6E093257
:100360000A9E01BE0A8E63EF01F009360A3602E3E7
:100370000184017E06E101800A6A096A086A076A47
:1003800012000A2803E0D88009321200D8900932FE
:1003900002E101821200018612000E360F3602E3DE
:1003A000018C017E06E101880F6A0E6A0D6A0C6AF3
:1003B00012000F2803E0D8800E321200D8900E32BF
:0603C000EAE1018A1200CF
:0A03C600946A956A0D0E966E926817
:1003D000C16EE66E0C0EE66E990EE66EB9EC02F09A
:1003E000E552E552E55232EC03F02DEC03F0000942
:1003F00001E0FBD724EC03F0F3CF8AF0F4CF8BF0CD
:100400008AC014F08BC015F00D6A010E0E6E14C078
:1004100008F015C009F0D9EC00F004C014F005C0D4
:1004200015F01450836E8BC082FF8AC008F08BC019
:1004300009F006EC00F007C018F008C019F009C078
:100440001AF00AC01BF00C6A0D6AA00E0E6E400E68
:100450000F6E18C007F019C008F01AC009F01BC0D1
:100460000AF06CEC00F007C014F008C015F009C0E9
:1004700016F00AC017F00C6AC00E0D6E7F0E0E6EDD
:10048000440E0F6E14C007F015C008F016C009F036
:1004900017C00AF019EC00F007C08CF008C08DF00E
:1004A00009C08EF00AC08FF00C6A0D6A0E6A400E09
:1004B0000F6E8CC007F08DC008F08EC009F08FC0A1
:1004C0000AF0FFEC00F0010A02E0848201D084927D
:0404D0008AD71200B5
:0C04D400060EF66E000EF76E000EF86EBD
:1004E00000010900F550856F0900F550866F03E1A2
:1004F000856701D03DD00900F550806F0900F550A7
:10050000816F0900F550826F09000900F550E96E0E
:100510000900F550EA6E090009000900F550836FE3
:100520000900F550846F09000900F6CF87F0F7CF76
:1005300088F0F8CF89F080C0F6FF81C0F7FF82C055
:10054000F8FF0001835302E1845307E00900F550EE
:10055000EE6E8307F8E28407F9D787C0F6FF88C0FC
:10056000F7FF89C0F8FF00018507000E865BBFD743
:02057000120077
:0E057200D9CFE6FFDACFE6FFE1CFD9FFE2CF27
:10058000DAFFC26AC06AFC0EDB407F0B3C0BC26E16
:10059000FC0EDB38F00B300B146EFB0EDB500F0B38
:1005A0001410C16EFD0EDB50040DF350380B156EA8
:1005B000FD0EDB380F0B070B146EFD0EDB50800BAE
:1005C00014101510C06EFC0EDBAE03D09E9C9D8CEB
:1005D000F28CC280E552E5CFDAFFE7CFD9FF1200F7
:1005E000056A046A100EE76ED8900836093604369C
:1005F00005360D50045C0E50055805E30D50045EA1
:0C0600000E50055A082AE72EF0D7120011
:04060C00000EF36E7B
:1006100000EE00F0060E01D81200EA6002D0EE6A89
:0C062000FCD7F350E9601200EE6AFCD732
:04062C0015EE00F0D7
:1006300025EE00F0F86A019C6AEC02F034EC03F05D
:08064000E3EC01F0FBD712000E
:08064800C450176E166AC3507E
:0A0650001610F36E17C0F4FF12003D
:06065A00C250020B01E09A
:04066000010E120075
:04066400C28212003C
:0206680012007E
:020000040030CA
:0100010002FC
:010003001EDE
:010005008377
:010006008178
:00000001FF
