:020000040000FA
:060000008FEF00F012007A
:0A00060001003C0100008000000032
:040010000C000000E0
:0C001400060EF66E000EF76E000EF86E81
:1000200000010900F550916F0900F550926F03E14E
:10003000916701D03DD00900F5508C6F0900F55053
:100040008D6F0900F5508E6F09000900F550E96EBB
:100050000900F550EA6E090009000900F5508F6F9C
:100060000900F550906F09000900F6CF93F0F7CF23
:1000700094F0F8CF95F08CC0F6FF8DC0F7FF8EC0DE
:10008000F8FF00018F5302E1905307E00900F5509B
:10009000EE6E8F07F8E29007F9D793C0F6FF94C091
:1000A000F7FF95C0F8FF00019107000E925BBFD7E4
:0200B00012003C
:0E00B200946A0F0EC16E020E956E966E83500C
:1000C000020B08E18450020B05E000018A2B000EB0
:1000D0008B230AD08350020B07E08450020B04E10B
:1000E00000018A07000E8B5B800E00018A25E96EF5
:0E00F000000E8B21EA6EEF50826EE1D71200F7
:0200FE00000EF2
:10010000F36E00EE00F0060E01D81200EA6002D095
:0E011000EE6AFCD7F350E9601200EE6AFCD7ED
:02011E0015EEDC
:1001200000F025EE00F0F86A019C0AEC00F09DEC6E
:0A01300000F059EC00F0FBD71200BC
:02013A001200B1
:04013C00C0F9A4B0B2
:08014000999282F88090000002
:020000040030CA
:0100010002FC
:010003001EDE
:010005008179
:00000001FF
