:020000040000FA
:06000000DFEF00F012002A
:020006000000F8
:08000800060EF66E000EF76E05
:10001000000EF86E00010900F550856F0900F550DB
:10002000866F03E1856701D03DD00900F550806FF0
:100030000900F550816F0900F550826F0900090031
:10004000F550E96E0900F550EA6E09000900090053
:10005000F550836F0900F550846F09000900F6CF51
:1000600087F0F7CF88F0F8CF89F080C0F6FF81C025
:10007000F7FF82C0F8FF0001835302E1845307E0D9
:100080000900F550EE6E8307F8E28407F9D787C0C0
:10009000F6FF88C0F7FF89C0F8FF00018507000E52
:0600A000865BBFD71200D1
:0A00A600D9CFE6FFDACFE6FFE1CF85
:1000B000D9FFE2CFDAFFAC6AAB6AFD0EDBB0AC88E9
:1000C000DBA202D0AC8CAB8CDBB4AC8EDBA602D056
:1000D000AB8801D0AB8ADBB8AC849E98DBBAAB8628
:1000E000DBAC02D09D8A01D09D9A9E9ADBAE02D0F5
:1000F0009D8801D09D98FB0EDB50AF6EFB0EFC0E71
:10010000DBCF03F003C002F0036A0250B06EAC8A8A
:10011000AB8E949C948EAC50100B04E0AC50800BD2
:1001200001E1948CE552E5CFDAFFE7CFD9FF120069
:10013000D9CFE6FFE1CFD9FFE652310EDF6E800E58
:10014000946E0F0EC16E330EE66EE66A3C0EE66EDE
:1001500053EC00F0E552E552E552DFCFE6FFB8EC94
:1001600000F0E552FFD7E552E552E7CFD9FF120084
:10017000D9CFE6FFDACFE6FFE1CFD9FFE2CFDAFF52
:10018000ACAC04D0AC9000018AB3AC80FD0EDB5067
:0E019000AD6EE552E5CFDAFFE7CFD9FF1200E2
:02019E00000E51
:1001A000F36E00EE00F0060E01D81200EA6002D0F5
:0E01B000EE6AFCD7F350E9601200EE6AFCD74D
:0201BE0015EE3C
:1001C00000F025EE00F0F86A019C04EC00F0EDEC84
:0A01D00000F098EC00F0FBD71200DD
:0201DA00120011
:020000040030CA
:0100010002FC
:010003001EDE
:010005008377
:00000001FF
