:020000040000FA
:06000000C4EF00F0120045
:020006000000F8
:08000800060EF66E000EF76E05
:10001000000EF86E00010900F550856F0900F550DB
:10002000866F03E1856701D03DD00900F550806FF0
:100030000900F550816F0900F550826F0900090031
:10004000F550E96E0900F550EA6E09000900090053
:10005000F550836F0900F550846F09000900F6CF51
:1000600087F0F7CF88F0F8CF89F080C0F6FF81C025
:10007000F7FF82C0F8FF0001835302E1845307E0D9
:100080000900F550EE6E8307F8E28407F9D787C0C0
:10009000F6FF88C0F7FF89C0F8FF00018507000E52
:0600A000865BBFD71200D1
:0A00A600D9CFE6FFDACFE6FFE1CF85
:1000B000D9FFE2CFDAFFC26AC06AFC0EDB407F0BD9
:1000C0003C0BC26EFC0EDB38F00B300B006EFB0EEF
:1000D000DB500F0B0010C16EFD0EDB50040DF35012
:1000E000380B016EFD0EDB380F0B070B006EFD0E9B
:1000F000DB50800B00100110C06EFC0EDBAE03D095
:100100009E9C9D8CF28CC280E552E5CFDAFFE7CF52
:04011000D9FF120001
:0C0114009268946A956A0E0EC16EE66E49
:10012000040EE66E910EE66E53EC00F0E552E552D9
:10013000E552DBEC00F0D2EC00F0F3CF00F0F4CFAE
:1001400001F00050011001E0F6D7D2EC00F0F3CF3F
:100150008AF0F4CF8BF08AC082FF8BC000F0016A76
:080160000050836EE6D7120087
:08016800000EF36E00EE00F042
:10017000060E01D81200EA6002D0EE6AFCD7F350F6
:08018000E9601200EE6AFCD7F1
:0801880015EE00F025EE00F079
:10019000F86A059C04EC00F0DDEC00F08AEC00F05D
:0401A000FBD7120077
:0C01A400C450036E026AC3500210F36ED8
:0601B00003C0F4FF120081
:0401B600C2821200EF
:0201BA00120031
:020000040030CA
:0100010002FC
:010003001EDE
:010005008377
:010006008178
:00000001FF
