:020000040000FA
:06000000A3EF00F0120066
:020006000000F8
:08000800060EF66E000EF76E05
:10001000000EF86E00010900F550856F0900F550DB
:10002000866F03E1856701D03DD00900F550806FF0
:100030000900F550816F0900F550826F0900090031
:10004000F550E96E0900F550EA6E09000900090053
:10005000F550836F0900F550846F09000900F6CF51
:1000600087F0F7CF88F0F8CF89F080C0F6FF81C025
:10007000F7FF82C0F8FF0001835302E1845307E0D9
:100080000900F550EE6E8307F8E28407F9D787C0C0
:10009000F6FF88C0F7FF89C0F8FF00018507000E52
:0600A000865BBFD71200D1
:0A00A600956A93680F0EC16E010EFB
:1000B00000018A6F8B6B8C6B8D6B040E8DAF02D041
:1000C000D89003D08C5D000E8D5914E28AC083FF56
:1000D000320EE66E7CEC00F0E5520001D8908A37D3
:1000E0008B3781B002D0836AFCD700018C2B000EC5
:0800F0008D23E3D7DCD71200D9
:0800F800FF0EE350036EEF0E52
:1001000001D0F30EE76EE72E83EF00F00C0E026EC7
:10011000E76AE72E89EF00F0022E88EF00F0032E49
:0601200081EF00F0120067
:0A012600000EF36E00EE00F0060E6E
:1001300001D81200EA6002D0EE6AFCD7F350E96001
:060140001200EE6AFCD77C
:0A01460015EE00F025EE00F0F86A57
:10015000019C04EC00F0B1EC00F053EC00F0FBD794
:0201600012008B
:02016200120089
:020000040030CA
:0100010002FC
:010003001EDE
:010005008377
:010006008178
:00000001FF
