:020000040000FA
:06000000AFEF00F012005A
:020006001200E6
:040008005CEF00F0B9
:04000C0001007A0174
:0A00100000008A000000020000005A
:06001A000C0EF66E000E54
:10002000F76E000EF86E00010900F550856F0900AB
:10003000F550866F03E1856701D03DD00900F5508A
:10004000806F0900F550816F0900F550826F09003B
:100050000900F550E96E0900F550EA6E0900090043
:100060000900F550836F0900F550846F09000900FD
:10007000F6CF87F0F7CF88F0F8CF89F080C0F6FF91
:1000800081C0F7FF82C0F8FF0001835302E184536F
:1000900007E00900F550EE6E8307F8E28407F9D710
:1000A00087C0F6FF88C0F7FF89C0F8FF0001850709
:0800B000000E865BBFD71200B1
:0800B800DACFE4FFE2CFDAFF2A
:1000C000E65200018A2B000E8B238AC000F08BC001
:1000D00001F0040ED89000360136E804FBE1005030
:1000E000826EF292E552E5CFDAFF11000F0EC16E7B
:1000F000946A9368D09EF28EF28CF288F292F19C10
:10010000827E320EE66E88EC00F0E552F9D71200DE
:10011000FF0EE350056EEF0E01D0F30EE76EE72EF3
:100120008FEF00F00C0E046EE76AE72E95EF00F0FB
:0E013000042E94EF00F0052E8DEF00F012006B
:02013E00000EB1
:10014000F36E00EE00F0060E01D81200EA6002D055
:0E015000EE6AFCD7F350E9601200EE6AFCD7AD
:02015E0015EE9C
:1001600000F025EE00F0F86A039C0DEC00F003ECC3
:0A01700000F076EC00F0FBD712005F
:02017A00000083
:020000040030CA
:0100010002FC
:010003001EDE
:010005008377
:010006008178
:00000001FF
