:020000040000FA
:06000000C0EF00F0120049
:0A00060001009E0100008A000000C6
:0400100002000000EA
:0C001400060EF66E000EF76E000EF86E81
:1000200000010900F550856F0900F550866F03E166
:10003000856701D03DD00900F550806F0900F5506B
:10004000816F0900F550826F09000900F550E96ED3
:100050000900F550EA6E090009000900F550836FA8
:100060000900F550846F09000900F6CF87F0F7CF3B
:1000700088F0F8CF89F080C0F6FF81C0F7FF82C01A
:10008000F8FF0001835302E1845307E00900F550B3
:10009000EE6E8307F8E28407F9D787C0F6FF88C0C1
:1000A000F7FF89C0F8FF00018507000E865BBFD708
:0200B00012003C
:0E00B200936A956A946A040E966E0F0EC16EE4
:1000C00084A431D08384320EE66E99EC00F0E552C0
:1000D0008394320EE66E99EC00F0E5528388320E7E
:1000E000E66E99EC00F0E5528398320EE66E99ECDC
:1000F00000F0E552828C320EE66E99EC00F0E5528B
:10010000829C320EE66E99EC00F0E5528186320E4A
:10011000E66E99EC00F0E5528196320EE66E99ECAF
:1001200000F0E55204D08196829C83988394C8D7CE
:020130001200BB
:0E013200FF0EE350036EEF0E01D0F30EE76EEA
:10014000E72EA0EF00F00C0E026EE76AE72EA6EF96
:1001500000F0022EA5EF00F0032E9EEF00F012003B
:10016000000EF36E00EE00F0060E01D81200EA60F9
:1001700002D0EE6AFCD7F350E9601200EE6AFCD7B9
:1001800015EE00F025EE00F0F86A019C0AEC00F094
:0C019000CEEC00F059EC00F0FBD71200A0
:02019C0012004F
:02019E0000005F
:020000040030CA
:0100010002FC
:010003001EDE
:010005008179
:00000001FF
