:020000040000FA
:060000002EEF01F01200DA
:020006001200E6
:040008000DEF00F008
:04000C000100780275
:0A0010000000800000000C0000005A
:06001A00DACFE4FFE2CFA3
:10002000DAFFE652F2A20DD000018A2B000E8B23DC
:100030008B3504E28A516308000E8B5502E28A6B0D
:100040008B6BF292F0A00AD000018A07000E8B5B46
:10005000800E8B1503E0630E8A6F8B6BF090E55278
:10006000E5CFDAFF1100030E936E926A946A0F0EC9
:10007000C16EF28EF28CF288F18CF08680808092D4
:100080008AC0E9FF8BC0EAFF0A0E0D6E0E6AE9CF47
:1000900008F0EACF09F0CBEC00F008C0E9FF09C096
:1000A000EAFF800EE926000EEA22EF50826E020E71
:1000B000E66EF1EC00F0E552809080828AC0E9FFA4
:1000C0008BC0EAFF0A0E0D6E0E6AE9CF08F0EACF88
:1000D00009F0CBEC00F004C0E9FF05C0EAFF800E98
:1000E000E926000EEA22EF50826E020EE66EF1EC77
:0800F00000F0E552C3D7120035
:0800F8000C0EF66E000EF76E0F
:10010000000EF86E00010900F550916F0900F550DE
:10011000926F03E1916701D03DD00900F5508C6FDB
:100120000900F5508D6F0900F5508E6F0900090028
:10013000F550E96E0900F550EA6E09000900090062
:10014000F5508F6F0900F550906F09000900F6CF48
:1001500093F0F7CF94F0F8CF95F08CC0F6FF8DC0F8
:10016000F7FF8EC0F8FF00018F5302E1905307E0C4
:100170000900F550EE6E8F07F8E29007F9D793C0AB
:10018000F6FF94C0F7FF95C0F8FF00019107000E3D
:06019000925BBFD71200D4
:0A019600006A0EAED4EF00F00D6C0D
:1001A0000E1EE86A0E22001E09AEDCEF00F0086C9D
:1001B000091EE86A0922001E08EC01F009BEECEFF6
:1001C00000F000AE000C086C091EE86A0922046CFD
:1001D000051EE86A0522000C00BEE3EF00F001886E
:0201E000FF0C12
:0E01E200FF0EE350116EEF0E01D0F30EE76E2C
:1001F000E72EF8EF00F00C0E106EE76AE72EFEEF28
:1002000000F0102EFDEF00F0112EF6EF00F01200BE
:10021000056A046A100EE76ED8900836093604366F
:1002200005360D50045C0E50055805E30D50045E74
:0C0230000E50055A082AE72EF0D71200E5
:04023C00000EF36E4F
:1002400000EE00F0060E01D81200EA6002D0EE6A5D
:0C025000FCD7F350E9601200EE6AFCD706
:04025C0015EE00F0AB
:1002600025EE00F0F86A019C7CEC00F003EC00F055
:0802700033EC00F0FBD7120093
:08027800C0F9A4B0999282F8CC
:04028000809000006A
:020000040030CA
:0100010002FC
:0100020018E5
:010003001EDE
:010005008179
:010006008178
:00000001FF
