:020000040000FA
:060000005DEF01F01200AB
:020006000000F8
:040008000EEF00F007
:02000C001200E0
:0400180070EF00F095
:04001C00DACFE4FF54
:10002000E2CFDAFFE9CFE4FFEACFE4FFF6CFE4FF67
:10003000F7CFE4FFF5CFE4FFF3CFE4FFF4CFE4FF25
:10004000FACFE4FF00EE00F0020EE80403E3EECF87
:10005000E4FFFBD700EE04F0000EE80403E3EECF6C
:10006000E4FFFBD7E652839400018A6B8B6B050E8D
:100070008BAF02D0D89003D08A5D000E8B590BE273
:100080008370320EE66E36EC01F0E55200018A2BE9
:10009000000E8B23ECD7F292E55200EE03F0000E37
:1000A000E80403E3E5CFEDFFFBD700EE01F0020E1D
:1000B000E80403E3E5CFEDFFFBD7E5CFFAFFE5CF9B
:1000C000F4FFE5CFF3FFE5CFF5FFE5CFF7FFE5CF91
:1000D000F6FFE5CFEAFFE5CFE9FFE5CFDAFF110054
:1000E000DACFE4FFE2CFDAFFE9CFE4FFEACFE4FFC3
:1000F000F6CFE4FFF7CFE4FFF5CFE4FFF3CFE4FF63
:10010000F4CFE4FFFACFE4FF00EE00F0020EE804C3
:1001100003E3EECFE4FFFBD700EE04F0000EE804AB
:1001200003E3EECFE4FFFBD7E652839400018A6B32
:100130008B6B060E8BAF02D0D89003D08A5D000E79
:100140008B590BE28372320EE66E36EC01F0E5520B
:1001500000018A2B000E8B23ECD7F090E55200EEC5
:1001600003F0000EE80403E3E5CFEDFFFBD700EE5C
:1001700001F0020EE80403E3E5CFEDFFFBD7E5CF86
:10018000FAFFE5CFF4FFE5CFF3FFE5CFF5FFE5CFCD
:10019000F7FFE5CFF6FFE5CFEAFFE5CFE9FFE5CFD3
:1001A000DAFF1100956A0F0EC16ED08EF28EF28CBE
:1001B000F288F292F19CF086F090F09CF19A8374B0
:0E01C000320EE66E36EC01F0E552F9D7120071
:0201CE00060E1B
:1001D000F66E000EF76E000EF86E00010900F55085
:1001E000856F0900F550866F03E1856701D03DD02A
:1001F0000900F550806F0900F550816F0900F55036
:10020000826F09000900F550E96E0900F550EA6EA9
:10021000090009000900F550836F0900F550846F4B
:1002200009000900F6CF87F0F7CF88F0F8CF89F002
:1002300080C0F6FF81C0F7FF82C0F8FF0001835342
:1002400002E1845307E00900F550EE6E8307F8E2FF
:100250008407F9D787C0F6FF88C0F7FF89C0F8FF89
:0C02600000018507000E865BBFD712006E
:04026C00FF0EE3504E
:10027000036EEF0E01D0F30EE76EE72E3DEF01F0B7
:100280000C0E026EE76AE72E43EF01F0022E42EFFA
:0A02900001F0032E3BEF01F0120015
:06029A00000EF36E00EE01
:1002A00000F0060E01D81200EA6002D0EE6AFCD718
:0A02B000F350E9601200EE6AFCD77B
:0602BA0015EE00F025EE38
:1002C00000F0F86A019CE7EC00F006EC00F0D2ECDC
:0602D00000F0FBD7120054
:020000040030CA
:0100010002FC
:010003001EDE
:010005008179
:00000001FF
